:020000040800F2
:100000000050002049170008C1150008C31500085A
:10001000C5150008C7150008C91500080000000034
:10002000000000000000000000000000CB150008E8
:10003000CD15000800000000CF150008D1150008FC
:1000400091170008911700089117000891170008F0
:1000500091170008911700089117000891170008E0
:1000600091170008911700089117000891170008D0
:1000700091170008911700089117000891170008C0
:1000800091170008911700089117000891170008B0
:1000900091170008911700089117000891170008A0
:1000A0009117000891170008911700089117000890
:1000B0009117000891170008911700089117000880
:1000C0009117000891170008911700089117000870
:1000D0009117000891170008911700089117000860
:1000E0009117000891170008911700080000000000
:1000F0000000000000000000000000000000000000
:0C01000000000000000000005FF808F1A3
:10010C0010B5054C237833B9044B13B10448AFF345
:10011C0000800123237010BD780000200000000037
:10012C006C20000808B5034B1BB103490348AFF31F
:10013C00008008BD000000007C0000206C2000083E
:10014C00EC46A0E8F05F4FF000007047B0E8F05FBD
:10015C00E546080008BF0120704700BF10B50446F3
:10016C000E4B18784FF47A73B3FBF0F30C4A10680B
:10017C00B0FBF3F000F080F868B90F2C01D9012026
:10018C000AE0002221464FF0FF3000F041F8034B0B
:10019C005C60002000E0012010BD00BF00000020CA
:1001AC000C00002008B5074A136843F010031360D5
:1001BC00032000F01BF80020FFF7D0FF01F0AAF994
:1001CC00002008BD00200240034A1168034B1B7835
:1001DC000B441360704700BFAC00002000000020EF
:1001EC00014B1868704700BFAC000020074AD36869
:1001FC0023F4E0631B041B0C000200F4E0601843C2
:10020C0040F0BF6040F40030D060704700ED00E07B
:10021C0030B4174BDB68C3F30223C3F10704042C7F
:10022C0028BF04241D1D062D18D9033B4FF0FF35A4
:10023C0005FA04F421EA0401994005FA03F322EAD1
:10024C000303194300280BDB0901C9B200F160401C
:10025C0000F5614080F8001330BC70470023E5E7DF
:10026C0000F00F000901C9B2024B1954F4E700BFAA
:10027C0000ED00E014ED00E00138B0F1807F0AD20F
:10028C00064B5860064AF02182F823100020986033
:10029C0007221A6070470120704700BF10E000E091
:1002AC0000ED00E0042805D0054A136823F0040390
:1002BC0013607047024A136843F0040313607047DD
:1002CC0010E000E0704708B5FFF7FCFF08BD000028
:1002DC001A4BDB6813F0100F27D0194AD36943F07F
:1002EC000203D3611023154AD26812F0040F06D012
:1002FC001349CA6942F00102CA6143F004030F4A70
:10030C00D26912F0010F09D00D49CA6942F00402FA
:10031C00CA610A49CA6922F00102CA6140F201129B
:10032C00934204D0054AD36070470023DBE7034AAD
:10033C00D36923F00103D361704700BF0020024052
:10034C00B00000200A4B1B6913F0800F0DD0084B36
:10035C00084A5A6002F188325A601B6913F0800F08
:10036C0001D001207047002070470020704700BF6B
:10037C000020024023016745034A136943F08003C0
:10038C0013610020704700BF0020024038B50446BE
:10039C00FFF726FF0546174BDB6813F0010F0AD059
:1003AC00B4F1FF3FF7D00CB3FFF71AFF401BA0428C
:1003BC00F1D9032019E00F4BDB6813F0200F02D0AA
:1003CC000C4B2022DA600B4BDB6813F0100F09D1B9
:1003DC00084BDB6913F0010F04D1064BDB6813F0FB
:1003EC00040F05D0FFF774FF012038BD0320FCE794
:1003FC000020FAE700200240064B0022DA61064B8F
:10040C001A6942F004021A611A6942F040021A6138
:10041C00704700BFB000002000200240064B0022B5
:10042C00DA61064B1A6942F002021A6158611A69C4
:10043C0042F040021A617047B000002000200240D8
:10044C00264B1B7E012B46D070B50E460446234B23
:10045C0001221A760368022B20D04CF25030FFF7A1
:10046C0095FF90BB4FF0FF333360A5680122E16824
:10047C00A36803EB8123AB4228D92846FFF7CEFFB4
:10048C004CF25030FFF782FF154A136923F0020338
:10049C0013610246B8B905F58065E8E74CF25030B7
:1004AC00FFF774FF08B1012210E00120FFF7A4FF51
:1004BC004CF25030FFF76AFF024609490B6923F0F2
:1004CC0004030B6102E0356000E00122034B0021C4
:1004DC001976104670BD022210467047B0000020FD
:1004EC0000200240F0B482B000263546A1E0002C7A
:1004FC0059D0012C00D1CE68FF2B68D88446FF2B35
:10050C0068D8AC00DCF800200F27A74022EA0702CD
:10051C0006FA04F42243CCF800204A6812F0805FFB
:10052C0000F086805E4A946944F0010494619269FB
:10053C0002F001020192019AAC08A71C594A52F828
:10054C00272005F00307BF004FF00F0C0CFA07FC37
:10055C0022EA0C0C544A904242D002F5806290423E
:10056C007FD002F5806290427DD002F5806290428D
:10057C0034D0042235E04D4FBC4214D00BD94C4F33
:10058C00BC4210D007F58037BC420CD0A7F58017C1
:10059C00BC42B1D107E0A7F58017BC4203D007F5E8
:1005AC008037BC42A8D18C687CB1012C08D0426148
:1005BC000826A1E7CE6808369EE7CE680C369BE786
:1005CC000261082698E7002696E7042694E700F1D6
:1005DC00040C94E7A5F10804A40093E7032200E0BF
:1005EC000022BA4042EA0C0202342E4F47F8242073
:1005FC004A6812F4803F38D02E4C22681A4322608D
:10060C004A6812F4003F36D02A4C62681A43626082
:10061C004A6812F4801F34D0264CA2681A43A26098
:10062C004A6812F4001F32D0224CE2681343E36094
:10063C0001350F2D31D80122AA400B6813409A4284
:10064C00F6D14C68122CB8D095D8022CB2D07FF6CB
:10065C004EAF032CB7D0112C7FF44EAFCE680436BE
:10066C004AE70122BDE70222BBE7124C226822EACC
:10067C0003022260C4E70F4C626822EA0302626044
:10068C00C6E70C4CA26822EA0302A260C8E7094C38
:10069C00E26822EA0303E360CAE702B0F0BC7047E9
:1006AC000010024000000140000801400000211031
:1006BC0000003110000401408368194201D1002070
:1006CC0070470120704712B909040161704701613C
:1006DC007047000082B0084B1B68084AA2FB03233A
:1006EC005B0A00FB03F0019000BF019B5A1E0192B4
:1006FC00002BF9D102B070470C000020D34D6210D2
:10070C0070B582B00446036813F0010F2CD0AB4BCC
:10071C005B6803F00C03042B1DD0A84B5B6803F043
:10072C000C03082B12D06368B3F5803F41D0002B2B
:10073C0055D103F1804303F504331A6822F4803257
:10074C001A601A6822F480221A6037E09B4B5B68AF
:10075C0013F4803FE7D0994B1B6813F4003F03D090
:10076C006368002B00F0AE81236813F0020F76D083
:10077C00924B5B6813F00C0F5FD0904B5B6803F0EF
:10078C000C03082B54D02369002B00F08A808C4B6F
:10079C0001221A60FFF724FD0546884B1B6813F0F5
:1007AC00020F75D1FFF71CFD401B0228F5D9032061
:1007BC008BE1824A136843F480331360636843B35C
:1007CC00FFF70EFD05467D4B1B6813F4003FCBD1A4
:1007DC00FFF706FD401B6428F5D9032075E1B3F53E
:1007EC00A02F09D0754B1A6822F480321A601A684F
:1007FC0022F480221A60E1E703F18043A3F53C3335
:10080C001A6842F480221A601A6842F480321A6024
:10081C00D4E7FFF7E5FC0546684B1B6813F4003F73
:10082C00A2D0FFF7DDFC401B6428F5D903204CE176
:10083C00624B5B6813F4803FA5D1604B1B6813F0CF
:10084C00020F04D02369012B01D001203DE15B4A4A
:10085C00136823F0F803616943EAC103136023684A
:10086C0013F0080F32D0A369002B5BD0554B01223B
:10087C001A60FFF7B5FC0546504B5B6A13F0020F8C
:10088C0021D1FFF7ADFC401B0228F5D903201CE158
:10089C004A4A136823F0F803616943EAC103136001
:1008AC00DDE7474B00221A60FFF79AFC0546434BE5
:1008BC001B6813F0020FD2D0FFF792FC401B0228EA
:1008CC00F5D9032001E10120FFF704FF236813F0A1
:1008DC00040F00F09780394BDB6913F0805F33D144
:1008EC00364BDA6942F08052DA61DB6903F08053EF
:1008FC000193019B0125344B1B6813F4807F25D099
:10090C00E368012B36D0002B4CD103F1804303F567
:10091C0004331A6A22F001021A621A6A22F00402E3
:10092C001A622CE0274B00221A60FFF759FC05468F
:10093C00224B5B6A13F0020FC8D0FFF751FC401B2F
:10094C000228F5D90320C0E00025D4E71E4A13681D
:10095C0043F480731360FFF743FC06461A4B1B6885
:10096C0013F4807FCCD1FFF73BFC801B6428F5D9B6
:10097C000320AAE0114A136A43F001031362E368EF
:10098C0073B3FFF72DFC06460C4B1B6A13F0020FDA
:10099C0037D1FFF725FC801B41F288339842F3D9FD
:1009AC00032092E0052B11D0044B1A6A22F00102AD
:1009BC001A621A6A22F004021A62E0E7001002407E
:1009CC00000042428004424200700040414B1A6ACF
:1009DC0042F004021A621A6A42F001021A62CEE76D
:1009EC00FFF7FEFB06463B4B1B6A13F0020F08D0C9
:1009FC00FFF7F6FB801B41F288339842F3D90320B2
:100A0C0063E0E5B9E369002B5ED0324A526802F02C
:100A1C000C02082A5BD0022B17D02F4B00221A6035
:100A2C00FFF7DEFB04462B4B1B6813F0007F47D00F
:100A3C00FFF7D6FB001B0228F5D9032045E0254A19
:100A4C00D36923F08053D361DCE7234B00221A6077
:100A5C00FFF7C6FB05461F4B1B6813F0007F06D043
:100A6C00FFF7BEFB401B0228F5D903202DE0236ABB
:100A7C00B3F5803F1AD017494B6823F47413226ADC
:100A8C00606A024313434B60134B01221A60FFF759
:100A9C00A7FB04460F4B1B6813F0007F0ED1FFF72A
:100AAC009FFB001B0228F5D903200EE0094A53686E
:100ABC0023F40033A1680B435360DCE7002004E00F
:100ACC00002002E0012000E0002002B070BD0120F7
:100ADC00FBE700BF001002406000424210B487B038
:100AEC00164C94E80F000DF1180C0CE90F00238A3A
:100AFC00ADF80430124B5B6803F00C02082A1AD1D3
:100B0C00C3F38342624412F8102C13F4803F05D1D6
:100B1C000C4800FB02F007B010BC7047084B5B6838
:100B2C00C3F34043634413F8143C074800FB02F042
:100B3C00B0FBF3F0EFE70448EDE700BF84200008BA
:100B4C000010024000093D0000127A00594B1B684E
:100B5C0003F007038B420CD2564A136823F00703A9
:100B6C000B431360136803F007038B4201D0012081
:100B7C00704770B5036813F0020F06D04E4A5368E5
:100B8C0023F0F0038468234353600C460546036846
:100B9C0013F0010F52D04368012B23D0022B28D025
:100BAC00454A126812F0020F00F0828042494A68EE
:100BBC0022F0030213434B60FFF712FB06466B68EF
:100BCC00012B1DD0022B2AD03B4B5B6813F00C0F72
:100BDC0034D0FFF705FB801B41F288339842F3D9E0
:100BEC00032064E0344A126812F4003FDED1012085
:100BFC005DE0314A126812F0007FD7D1012056E037
:100C0C002D4B5B6803F00C03042B17D0FFF7E8FAAD
:100C1C00801B41F288339842F2D9032047E0264BDF
:100C2C005B6803F00C03082B08D0FFF7D9FA801B84
:100C3C0041F288339842F2D9032038E01D4B1B68EF
:100C4C0003F00703A3420CD91A4A136823F00703D5
:100C5C0023431360136803F00703A34201D0012060
:100C6C0025E02B6813F0040F06D0134A536823F4C5
:100C7C00E063E9680B4353602B6813F0080F07D04F
:100C8C000D4A536823F46053296943EAC103536046
:100C9C00FFF724FF084B5B68C3F30313074AD35CCD
:100CAC00D840074B18600020FFF758FA002070BDA1
:100CBC000120FCE7002002400010024098200008B0
:100CCC000C000020014B1868704700BF0C0000207E
:100CDC0008B5054B58601B6803B908BD024B186872
:100CEC000121FFF733FA00BF940000200EB42DE968
:100CFC00F04183B0804609AB53F8046B0193082094
:100D0C0000F066FD0446019B32460021084600F0C7
:100D1C0051FE451C284600F05BFD0746019B324600
:100D2C00294600F047FEC4F8008067602046FFF7B4
:100D3C00CFFF03B0BDE8F04103B0704710B50446D7
:100D4C0018B1406808B100F04BFD204600F048FD9A
:100D5C0010BD00002DE9F04180460F461646124B9F
:100D6C001868043000F035FA05460F4B1B681B78E9
:100D7C00002BFAD0002409E0B4EBA30F0BDA57F8E0
:100D8C00041B284600F030FA043501343346002E9B
:100D9C00F2DAF31CF0E7044B1B68C3F80C801E61FD
:100DAC0002221A70BDE8F081080000202DE9F04104
:100DBC0080460E4617460024002512E0C4F120029E
:100DCC00A4F1200328FA04F006FA02F2104326FAE2
:100DDC0003F3184300F0010000F004FC013445F16A
:100DEC000005FB179D4208BFBC42E7D3BDE8F0816C
:100DFC00F8B5054600240026002706E000F010FC9C
:100E0C00A040064347EAE0770134AC42F6DB3046BB
:100E1C003946F8BD38B500F03BFC4FF0FF340B4DB4
:100E2C00322220462946FFF7C1FF10224EF29E7057
:100E3C000021FFF7BBFF322220462946FFF7B6FF01
:100E4C00032200200021FFF7B1FF38BDFFFF030094
:100E5C0082B000210B4600E001331F2B06DC20FA88
:100E6C0003F212F0010FF7D00131F5E711F0010F89
:100E7C0006D001238DF807309DF8070002B07047AB
:100E8C0000238DF80730F7E710B582B0012808D0A1
:100E9C00C1F3810393B1032B10D000238DF80730DD
:100EAC000FE0C1F381032BB1032B03D001238DF889
:100EBC00073006E000238DF8073002E001238DF89F
:100ECC000730400060F07A00490001F01801084337
:100EDC009DF8073040EA43100822C0B20021FFF70A
:100EEC0065FF00F0BBFB0320FFF782FFC0B20128B7
:100EFC0003D0022827D004282AD02020FFF778FF1F
:100F0C000446FFF7A5FFC0B28DF806000120FFF7DD
:100F1C006FFFC0B28DF807009DF80620D2B29DF885
:100F2C000730DBB29A4203D00C490020FFF7DEFEFB
:100F3C0000F0AEFB032200200021FFF737FF204614
:100F4C00002102B010BD06490220FFF7CFFED4E706
:100F5C0004490420FFF7CAFECFE700BF2821000890
:100F6C00B0200008EC20000810B582B0144601280F
:100F7C0008D0C1F3810393B1032B10D001238DF85A
:100F8C0007300FE0C1F381032BB1032B03D00023F7
:100F9C008DF8073006E001238DF8073002E00023BE
:100FAC008DF80730400060F07E00490001F0180118
:100FBC0008439DF8073040EA43100822C0B20021D4
:100FCC00FFF7F4FE00F04AFB0320FFF711FFC0B25D
:100FDC008DF806009DF80630DBB2012B06D09DF88B
:100FEC000630DBB2022B1BD0042B1ED000F050FBC2
:100FFC00202220460021FFF7D9FE2046FFF728FFCC
:10100C00C0B28DF807009DF8070001220021FFF700
:10101C00CDFE032200200021FFF7C8FE02B010BD58
:10102C0004490220FFF762FEE0E703490120FFF7C5
:10103C005DFEDBE7442100088021000830B583B059
:10104C000C4601F0F003114A126802F0F00500069C
:10105C0043EA00018D420CD022F07F4222F0F002D4
:10106C00134343EA0002094B1A6008210020FFF7E2
:10107C007BFF21460120FFF707FF01900C21002088
:10108C00FFF702FF0190019803B030BD9C000020D7
:10109C0038B50C4615460F4B1B6823F47F0121F421
:1010AC007F41000644EA000291420CD023F07F43BA
:1010BC0023F0F003234343EA0002064B1A60082195
:1010CC000020FFF751FF2A4621460120FFF74CFF75
:1010DC0038BD00BF9C00002010B5044602090A4B25
:1010EC001B6803F00F01914208D023F00F031A4341
:1010FC00054B1A6008210020FFF736FF214600201F
:10110C00FFF7C2FE10BD00BF9C00002038B504469E
:10111C000D4602090A4B1B6803F00F01914208D0DF
:10112C0023F00F031A43064B1A6008210020FFF727
:10113C001BFF2A4621460020FFF716FF38BD00BFD3
:10114C009C00002000B583B0FFF764FE0021084628
:10115C00FFF79AFE01901F2200210846FFF704FFBB
:10116C000420FFF7B9FF00900020074B18600246DF
:10117C000821FFF7F9FE0420FFF7AEFF009001985D
:10118C0003B05DF804FB00BF9C00002008B54FF0D5
:10119C00A0410420FFF7BAFF0420FFF79DFF00F0E9
:1011AC002043B3F1204FFAD108BD10B5FFF7EEFF85
:1011BC00FC210020FFF742FF044600210846FFF700
:1011CC003DFF40F0020200210846FFF761FF204678
:1011DC0010BD08B5024604210020FFF759FF0C2171
:1011EC000020FFF72BFF08BD10B50C46024604216A
:1011FC000020FFF74DFF22460C210020FFF748FF8F
:10120C0010BD000010B5084C08492046FFF7ECFF54
:10121C0007490848FFF7E8FF07490848FFF7E4FFCC
:10122C002046FFF7D6FF10BDF0ED00E003005FA0F5
:10123C0001000001FCED00E0040005FA0CED00E0FB
:10124C0008B501460348FFF7CFFF0348FFF7C1FF7E
:10125C0008BD00BFF4ED00E0F8ED00E010B5044669
:10126C000448FFF7C1FF44F480310348FFF7BCFF8B
:10127C0010BD00BFF8ED00E0F4ED00E00023934258
:10128C000DDA10B4A1B011F8014B20A8184400F8E5
:10129C00804C01339342F6DB21B010BC7047704791
:1012AC0010B588B0184B9A6942F020029A619A697D
:1012BC0002F020020192019A9A6942F008029A61A6
:1012CC009A6902F008020292029A9A6942F00402A8
:1012DC009A619B6903F004030393039B0B4C00225C
:1012EC004FF4C0412046FFF7EEF94FF4C04304938E
:1012FC0001230593002306930323079304A9204697
:10130C00FFF7F0F808B010BD00100240000C0140CF
:10131C0000B583B0FFF716F801A90220FFF790F88B
:10132C00FFF72AF803B05DF804FB70B505460E46CE
:10133C00FFF708F8002405E02846FFF76FF805F5DD
:10134C0080650134B442F7DBFFF716F870BDFEE799
:10135C0000B591B0012206924FF48033079300211F
:10136C0008910A9202220D920E934FF4E0130F9300
:10137C0006A8FFF7C5F908BB0F23019302210291C0
:10138C00002303934FF480620492059301A8FFF7A6
:10139C00DDFBB8B9FFF796FC0C4BA3FB00308009C2
:1013AC00FEF76AFF0420FEF77DFF002211464FF086
:1013BC00FF30FEF72DFF11B05DF804FBC42104488B
:1013CC00FFF7C5FFD2210248FFF7C1FFD34D6210D2
:1013DC00BC21000870B5A8B0002322932193219B57
:1013EC00CBB9229B0BB1FFF793FFFEF7DBFEFFF7A8
:1013FC00AFFFFFF755FF3B4B1A68009202AA1A6029
:10140C004FF05A325A6002A8FEF79AFE40B1354BA3
:10141C005B68019358E020991F98FFF786FFE0E77F
:10142C0006222A200021FFF7C1FCFFF78BFE279034
:10143C00FFF7BBFE269000210846FFF7FFFD239027
:10144C002948FFF7C6FE25902848FFF7C2FE2590D5
:10145C00FFF7D8FE2490264C264E21463046FFF747
:10146C00C3FE254D25492846FFF7BEFE3046FFF743
:10147C00B0FE24902846FFF7ACFE24904FF000609D
:10148C00FFF7A7FE24901E490520FFF7E7FE052075
:10149C00FFF7D6FE24900C221A491B48FFF75AFC82
:1014AC000C221A490DF16700FFF7E8FEFEF74AFF20
:1014BC001748FEF7B3FF2246CD210120FFF754FD5C
:1014CC00084B4FF05A325A60064B0021009A43F8F1
:1014DC0031205B68B3F15A3F02D00198FFF72EFC24
:1014EC00FEE700BF94000020002004E000ED00E0C7
:1014FC00785634121010002014100020CEFAAD0BC8
:10150C0010E10F00CC210008006000082002002030
:10151C000010000800B583B0244B9A6942F0010218
:10152C009A619A6902F001020092009ADA6942F01B
:10153C008052DA61DB6903F080530193019B032035
:10154C00FEF754FE002211466FF00B00FEF760FE12
:10155C00002211466FF00A00FEF75AFE00221146D7
:10156C006FF00900FEF754FE002211466FF00400E4
:10157C00FEF74EFE002211466FF00300FEF748FE08
:10158C00002211466FF00100FEF742FE00221146C8
:10159C004FF0FF30FEF73CFE054A536823F0E06342
:1015AC0043F00073536003B05DF804FB001002407D
:1015BC00000001407047FEE7FEE7FEE7FEE77047DC
:1015CC007047704708B5FEF7FFFDFEF77CFE08BDBF
:1015DC0082B00190019B5A1E0192002BFAD102B0ED
:1015EC007047000038B505460C4C00224FF40051F2
:1015FC002046FFF768F8EAB24FF480412046FFF727
:10160C0062F8FA20FFF7E4FF01224FF40051204664
:10161C00FFF759F8FA20FFF7DBFF38BD000C01404B
:10162C0038B50D4C01224FF400512046FFF74BF812
:10163C00FA20FFF7CDFF4FF480412046FFF73CF82E
:10164C00054600224FF400512046FFF73CF8FA20E3
:10165C00FFF7BEFF284638BD000C014030B585B001
:10166C004FF48043009300250195084C69462046B1
:10167C00FEF738FF2A464FF400512046FFF723F8B7
:10168C00FA20FFF7A5FF05B030BD00BF000C0140EC
:10169C0010B584B0154C01224FF400512046FFF7D1
:1016AC0012F8FA20FFF794FF00224FF40051204665
:1016BC00FFF709F8FA20FFF78BFF01224FF40051D6
:1016CC002046FFF700F8FA20FFF782FF4FF4804323
:1016DC000093012301930023029303230393694690
:1016EC002046FEF7FFFE04B010BD00BF000C014009
:1016FC000F4B1A6842F001021A6059680D4A0A40F1
:10170C005A601A6822F0847222F480321A601A68C5
:10171C0022F480221A605A6822F4FE025A604FF4B6
:10172C001F029A60044B4FF000629A60704700BF32
:10173C00001002400000FFF800ED00E0002103E083
:10174C000B4B5B58435004310A480B4B42189A42DE
:10175C00F6D30A4A02E0002342F8043B084B9A42B3
:10176C00F9D3FFF7C5FF00F00FF8FFF733FE704712
:10177C0014220008000000207400002078000020D3
:10178C00D4000020FEE7000070B500250C4E0D4C77
:10179C00A41BA410A54209D100F062FC00250A4E3E
:1017AC000A4CA41BA410A54205D170BD56F82530D7
:1017BC0098470135EEE756F8253098470135F2E7A2
:1017CC000C2200080C2200080C2200081022000831
:1017DC00024B0146186800F057B800BF10000020FB
:1017EC00024B0146186800F003B800BF100000203F
:1017FC0038B50546002943D051F8043C0C1F002B8A
:10180C00B8BFE41800F0E4F81E4A1368104633B968
:10181C00636014602846BDE8384000F0DAB8A34293
:10182C000BD921686218934201BF1A685B68521881
:10183C00226063600460EDE713465A680AB1A24265
:10184C00FAD919685818A0420BD1206801445818CD
:10185C0082421960DED110685268014419605A60E6
:10186C00D8E702D90C232B60D4E7206821188A42D0
:10187C0001BF116852680918216062605C60C9E799
:10188C0038BD00BFA000002070B5CD1C25F00305AD
:10189C0008350C2D38BF0C25002D064601DBA9425E
:1018AC0003D90C233360002070BD00F091F8214A5D
:1018BC001468214691B9204C23681BB9304600F0BE
:1018CC003DF820602946304600F038F8431C24D1FE
:1018DC000C233046336000F07CF8E4E70B685B1BAC
:1018EC0018D40B2B0FD90B60CC18CD50304600F010
:1018FC0070F804F10B00231D20F00700C31AD3D09D
:10190C005A42E250D0E74B688C4216BF63601360BA
:10191C000C46EBE70C464968CCE7C41C24F00304E6
:10192C00A04205D0211A304600F008F80130CFD083
:10193C002560DBE7A0000020A400002038B50023C0
:10194C00054C05460846236000F07CFB431C02D185
:10195C00236803B12B6038BDD000002030B5141EB5
:10196C0005469BB0184605DA8B234FF0FF302B60F1
:10197C001BB030BD4FF40273ADF80C300CBF2346D6
:10198C0004F1FF33029305934FF6FF73009104911A
:10199C00ADF80E3002461E9B6946284600F074F8DE
:1019AC00431CBCBF8B232B60002CE1D00022009B7E
:1019BC001A70DDE707B5009313460A460146034843
:1019CC000068FFF7CBFF03B05DF804FB10000020AC
:1019DC00704770472DE9F0478E6882469E420C4650
:1019EC009046994637D88A8912F4906F31D00223E9
:1019FC00256809696F1A656905EB450595FBF3F5D3
:101A0C0009F101033B449D4238BF1D46530530D5B7
:101A1C002946FFF739FF064650B90C234FF0FF302B
:101A2C00CAF80030A38943F04003A381BDE8F087D6
:101A3C003A46216900F0B4FAA38923F4906343F089
:101A4C008003A38126613E4426604E466561ED1BF2
:101A5C00A5604E4500D94E4632464146206800F0FE
:101A6C00AAFAA36800209B1BA36023681E4426606F
:101A7C00DCE72A4600F0B8FA06460028E2D12169D4
:101A8C005046FFF7B5FEC8E72DE9F04F9DB0039324
:101A9C008B8980461D060C4616460FD50B696BB913
:101AAC004021FFF7F1FE2060206128B90C23C8F813
:101ABC0000304FF0FF30C7E04023636100230993EF
:101ACC0020238DF8293030234FF0010B8DF82A306C
:101ADC0037463D4615F8013B0BB1252B3ED1B7EBF4
:101AEC00060A0BD05346324621464046FFF772FF9A
:101AFC00013000F0A480099B534409933B78002BE0
:101B0C0000F09D8000234FF0FF32CDE905230493B4
:101B1C0007938DF853301A932F46052217F8011BA3
:101B2C004F4800F02FFA049BD0B9D90644BF2022AD
:101B3C008DF853201A0744BF2B228DF853202A7896
:101B4C002A2A15D02F4600200A25079A394611F863
:101B5C00013B303B092B4DD9B8B10FE02F46B8E70C
:101B6C003F4A3D46801A0BFA00F018430490D3E725
:101B7C00039A111D12680391002A01DB079204E0FD
:101B8C00524243F00203079204933B782E2B0CD164
:101B9C007B782A2B33D1039B02371A1D1B680392C7
:101BAC00002BB8BF4FF0FF3305932E4D032239782D
:101BBC00284600F0E7F938B14023401B03FA00F047
:101BCC00049B0137034304933978062226487E1C74
:101BDC008DF8281000F0D6F9002838D0234B13BB11
:101BEC00039B073323F0070308330393099B4B44F0
:101BFC0009936DE705FB023201200F46A6E700238F
:101C0C000A25194601370593384610F8012B303A4E
:101C1C00092A03D9002BC8D00591C6E705FB012181
:101C2C0001230746F0E703AB00932246104B04A9AF
:101C3C004046AFF30080B0F1FF3F8146D6D1A38977
:101C4C005B063FF536AF09981DB0BDE8F08F03ABCE
:101C5C0000932246064B04A9404600F081F8EAE7BF
:101C6C00D8210008DE210008E22100080000000055
:101C7C00E11900082DE9F04791461F468A680B6967
:101C8C0006469342B8BF1346C9F8003091F843207A
:101C9C000C46DDF8208012B10133C9F800302368FE
:101CAC00990642BFD9F800300233C9F800302568D4
:101CBC0015F0060507D104F1190AE368D9F80020DC
:101CCC009B1AAB4229DC94F843302268003318BFCE
:101CDC00012392062ED404F1430239463046C04704
:101CEC00013021D02368E56803F00603042B18BFEC
:101CFC000025D9F800204FF0000908BFAD1AA368E1
:101D0C00226908BF25EAE5759342C4BF9B1AED18FA
:101D1C001A344D451AD1002008E0012352463946A9
:101D2C003046C047013003D14FF0FF30BDE8F0879B
:101D3C000135C2E73020E11881F843005A1C94F8B1
:101D4C0045102244023382F84310C4E70123224693
:101D5C0039463046C0470130E6D009F10109D8E7D1
:101D6C002DE9F04301F1430C0C46097E85B06E2938
:101D7C001746064698460C9A00F0B38022D8632981
:101D8C0036D00AD8002900F0B980582900F0838099
:101D9C0004F1420584F8421032E0642901D069292B
:101DAC00F6D120681368050603F104012AD51B68D7
:101DBC001160002B03DA2D225B4284F843206F481C
:101DCC000A2239E0732900F09D8008D86F2920D0B1
:101DDC007029DDD1236843F02003236003E07529CB
:101DEC0017D07829D4D17823654884F8453055E04C
:101DFC00136804F14205191D1B68116084F8423008
:101E0C0001238CE01B6810F0400F116018BF1BB24F
:101E1C00CFE713682568181D1060280601D51B68CC
:101E2C0002E06806FBD51B886F2914BF0A22082222
:101E3C005248002184F843106568002DA560C0F25B
:101E4C009580216821F004012160002B3DD1002DEB
:101E5C0040F08E806546082A0BD12368DB0708D535
:101E6C00236962689A42DEBF302305F8013C05F114
:101E7C00FF35ACEB05032361CDF800803B4603AA8C
:101E8C0021463046FFF7F6FE01304DD14FF0FF30C2
:101E9C0005B0BDE8F083394884F845101368216813
:101EAC001D1D1B6815600A060BD5CA0744BF41F0FF
:101EBC00200121601BB9226822F02002226010222E
:101ECC00B7E74D0648BF9BB2EFE76546B3FBF2F1AF
:101EDC0002FB1133C35C05F8013D0B460029F5D11B
:101EEC00B9E713682568181D6169106028061B681E
:101EFC0001D5196002E06A06FBD5198000236546FE
:101F0C002361B9E71368191D11601D68626800210F
:101F1C00284600F037F808B1401B60606368236105
:101F2C00002384F84330A7E723692A463946304614
:101F3C00C0470130AAD023689B0713D4E068039BE9
:101F4C009842B8BF1846A3E701234A4639463046A3
:101F5C00C04701309AD00135E368039A9B1AAB4213
:101F6C00F2DCEBE7002504F11909F5E7002BACD105
:101F7C00037804F1420584F842306CE7E92100084B
:101F8C00FA21000810B5C9B202449042034601D1AF
:101F9C00002303E01C7801308C42F6D1184610BDAA
:101FAC0010B5431E0A44914200D110BD11F8014BEB
:101FBC0003F8014FF7E7884210B501EB020307D88D
:101FCC00421E99420AD011F8014B02F8014FF8E772
:101FDC008342F5D98118D21AD34200D110BD13F81F
:101FEC00014D01F8014DF7E7F8B5074614460E46CA
:101FFC0021B9BDE8F8401146FFF746BC22B9FFF7FE
:10200C00F7FB25462846F8BD00F014F8A0420FD285
:10201C0021463846FFF738FC05460028F2D03146F9
:10202C002246FFF7BDFF31463846FFF7E1FBE9E7F3
:10203C003546E7E751F8043C181F002BBCBF0B5882
:10204C00C0187047044A05491368002B08BF0B469B
:10205C001844106018467047A8000020D8000020D3
:10206C00F8B500BFF8BC08BC9E467047F8B500BF79
:08207C00F8BC08BC9E46704749
:1020840002030405060708090A0B0C0D0E0F1010B5
:10209400010200000000000000000000010203042F
:1020A4000607080900000000010203047377645264
:1020B4006561645061636B65742E204572726F7242
:1020C4003A2041434B20726573706F6E6420574110
:1020D400495420666F7220746865207472616E734F
:1020E4006665722E00000000737764526561645067
:1020F40061636B65742E204572726F723A2041439E
:102104004B20726573706F6E64204641554C5420A9
:10211400666F7220746865207472616E736665728E
:102124002E00000057726F6E6720706172697479B7
:1021340020626974206465746563746564210000B9
:1021440073776457726974655061636B65742E208C
:102154004572726F723A2041434B20726573706FFF
:102164006E64205741495420666F7220746865205C
:102174007472616E736665722E0000007377645723
:10218400726974655061636B65742E204572726F59
:10219400723A2041434B20726573706F6E6420461F
:1021A40041554C5420666F722074686520747261C6
:1021B4006E736665722E00002E2E2F5372632F6D80
:1021C40061696E2E6300000068656C6C6F20776F28
:1021D400726C6400232D302B2000686C4C00656603
:1021E4006745464700303132333435363738394164
:1021F400424344454600303132333435363738397A
:0822040061626364656600007D
:04220C003101000894
:042210000D010008B4
:102214000100000010000000B401002000A24A04E4
:102224001400002000000000000000000000000076
:10223400000000000000000000000000000000009A
:10224400000000000000000000000000000000008A
:10225400000000000000000000000000000000007A
:10226400000000000000000000000000000000006A
:10227400000000000000000000000000000000005A
:042284000000000056
:04000005080017498F
:00000001FF
