:020000040800F2
:10000000005000208D140008051300080713000895
:10001000091300080B1300080D130008000000006E
:100020000000000000000000000000000F130008A6
:100030001113000800000000131300081513000836
:10004000D5140008D5140008D5140008D5140008EC
:10005000D5140008D5140008D5140008D5140008DC
:10006000D5140008D5140008D5140008D5140008CC
:10007000D5140008D5140008D5140008D5140008BC
:10008000D5140008D5140008D5140008D5140008AC
:10009000D5140008D5140008D5140008D51400089C
:1000A000D5140008D5140008D5140008D51400088C
:1000B000D5140008D5140008D5140008D51400087C
:1000C000D5140008D5140008D5140008D51400086C
:1000D000D5140008D5140008D5140008D51400085C
:1000E000D5140008D5140008D5140008000000003D
:1000F0000000000000000000000000000000000000
:0C01000000000000000000005FF808F1A3
:10010C0010B5054C237833B9044B13B10448AFF345
:10011C0000800123237010BD70000020000000003F
:10012C00B01D000808B5034B1BB103490348AFF3DE
:10013C00008008BD0000000074000020B01D000805
:10014C00EC46A0E8F05F4FF000007047B0E8F05FBD
:10015C00E546080008BF0120704700BF10B50446F3
:10016C000E4B18784FF47A73B3FBF0F30C4A10680B
:10017C00B0FBF3F000F080F868B90F2C01D9012026
:10018C000AE0002221464FF0FF3000F041F8034B0B
:10019C005C60002000E0012010BD00BF00000020CA
:1001AC000800002008B5074A136843F010031360D9
:1001BC00032000F01BF80020FFF7D0FF01F04CF8F3
:1001CC00002008BD00200240034A1168034B1B7835
:1001DC000B441360704700BFA400002000000020F7
:1001EC00014B1868704700BFA4000020074AD36871
:1001FC0023F4E0631B041B0C000200F4E0601843C2
:10020C0040F0BF6040F40030D060704700ED00E07B
:10021C0030B4174BDB68C3F30223C3F10704042C7F
:10022C0028BF04241D1D062D18D9033B4FF0FF35A4
:10023C0005FA04F421EA0401994005FA03F322EAD1
:10024C000303194300280BDB0901C9B200F160401C
:10025C0000F5614080F8001330BC70470023E5E7DF
:10026C0000F00F000901C9B2024B1954F4E700BFAA
:10027C0000ED00E014ED00E00138B0F1807F0AD20F
:10028C00064B5860064AF02182F823100020986033
:10029C0007221A6070470120704700BF10E000E091
:1002AC0000ED00E0042805D0054A136823F0040390
:1002BC0013607047024A136843F0040313607047DD
:1002CC0010E000E0704708B5FFF7FCFF08BD000028
:1002DC000A4B1B6913F0800F0DD0084B084A5A606B
:1002EC0002F188325A601B6913F0800F01D0012093
:1002FC007047002070470020704700BF002002406C
:10030C0023016745064B0022DA61064B1A6942F05D
:10031C0002021A6158611A6942F040021A61704770
:10032C00A800002000200240F0B482B00026354620
:10033C00A1E0002C59D0012C00D1CE68FF2B68D83D
:10034C008446FF2B68D8AC00DCF800200F27A740B0
:10035C0022EA070206FA04F42243CCF800204A6889
:10036C0012F0805F00F086805E4A946944F00104CC
:10037C009461926902F001020192019AAC08A71CE7
:10038C00594A52F8272005F00307BF004FF00F0C15
:10039C000CFA07FC22EA0C0C544A904242D002F5AB
:1003AC00806290427FD002F5806290427DD002F54F
:1003BC008062904234D0042235E04D4FBC4214D0C0
:1003CC000BD94C4FBC4210D007F58037BC420CD037
:1003DC00A7F58017BC42B1D107E0A7F58017BC4246
:1003EC0003D007F58037BC42A8D18C687CB1012CB6
:1003FC0008D042610826A1E7CE6808369EE7CE6891
:10040C000C369BE70261082698E7002696E704263F
:10041C0094E700F1040C94E7A5F10804A40093E719
:10042C00032200E00022BA4042EA0C0202342E4FB2
:10043C0047F824204A6812F4803F38D02E4C2268AA
:10044C001A4322604A6812F4003F36D02A4C626884
:10045C001A4362604A6812F4801F34D0264CA2689A
:10046C001A43A2604A6812F4001F32D0224CE26890
:10047C001343E36001350F2D31D80122AA400B68DC
:10048C0013409A42F6D14C68122CB8D095D8022C55
:10049C00B2D07FF64EAF032CB7D0112C7FF44EAFF9
:1004AC00CE6804364AE70122BDE70222BBE7124CB4
:1004BC00226822EA03022260C4E70F4C626822EA37
:1004CC0003026260C6E70C4CA26822EA0302A26037
:1004DC00C8E7094CE26822EA0303E360CAE702B00A
:1004EC00F0BC7047001002400000014000080140C1
:1004FC0000002110000031100004014083681942F3
:10050C0001D1002070470120704712B90904016124
:10051C00704701617047000082B0084B1B68084AA5
:10052C00A2FB03235B0A00FB03F0019000BF019BBD
:10053C005A1E0192002BF9D102B07047080000201E
:10054C00D34D621070B582B00446036813F0010FEE
:10055C002CD0AB4B5B6803F00C03042B1DD0A84BC9
:10056C005B6803F00C03082B12D06368B3F5803F73
:10057C0041D0002B55D103F1804303F504331A68A5
:10058C0022F480321A601A6822F480221A6037E052
:10059C009B4B5B6813F4803FE7D0994B1B6813F4BB
:1005AC00003F03D06368002B00F0AE81236813F08A
:1005BC00020F76D0924B5B6813F00C0F5FD0904B10
:1005CC005B6803F00C03082B54D02369002B00F05C
:1005DC008A808C4B01221A60FFF702FE0546884B7D
:1005EC001B6813F0020F75D1FFF7FAFD401B0228B0
:1005FC00F5D903208BE1824A136843F480331360EE
:10060C00636843B3FFF7ECFD05467D4B1B6813F4A1
:10061C00003FCBD1FFF7E4FD401B6428F5D9032044
:10062C0075E1B3F5A02F09D0754B1A6822F480320E
:10063C001A601A6822F480221A60E1E703F1804301
:10064C00A3F53C331A6842F480221A601A6842F40B
:10065C0080321A60D4E7FFF7C3FD0546684B1B6870
:10066C0013F4003FA2D0FFF7BBFD401B6428F5D963
:10067C0003204CE1624B5B6813F4803FA5D1604BC7
:10068C001B6813F0020F04D02369012B01D0012049
:10069C003DE15B4A136823F0F803616943EAC10347
:1006AC001360236813F0080F32D0A369002B5BD0C2
:1006BC00554B01221A60FFF793FD0546504B5B6AC0
:1006CC0013F0020F21D1FFF78BFD401B0228F5D947
:1006DC0003201CE14A4A136823F0F803616943EADA
:1006EC00C1031360DDE7474B00221A60FFF778FD6A
:1006FC000546434B1B6813F0020FD2D0FFF770FD79
:10070C00401B0228F5D9032001E10120FFF704FF6B
:10071C00236813F0040F00F09780394BDB6913F05A
:10072C00805F33D1364BDA6942F08052DA61DB6993
:10073C0003F080530193019B0125344B1B6813F488
:10074C00807F25D0E368012B36D0002B4CD103F1F0
:10075C00804303F504331A6A22F001021A621A6A02
:10076C0022F004021A622CE0274B00221A60FFF7D9
:10077C0037FD0546224B5B6A13F0020FC8D0FFF71A
:10078C002FFD401B0228F5D90320C0E00025D4E73B
:10079C001E4A136843F480731360FFF721FD06466D
:1007AC001A4B1B6813F4807FCCD1FFF719FD801B0B
:1007BC006428F5D90320AAE0114A136A43F0010317
:1007CC001362E36873B3FFF70BFD06460C4B1B6A11
:1007DC0013F0020F37D1FFF703FD801B41F2883372
:1007EC009842F3D9032092E0052B11D0044B1A6ADE
:1007FC0022F001021A621A6A22F004021A62E0E77D
:10080C00001002400000424280044242007000404E
:10081C00414B1A6A42F004021A621A6A42F001024F
:10082C001A62CEE7FFF7DCFC06463B4B1B6A13F063
:10083C00020F08D0FFF7D4FC801B41F2883398429A
:10084C00F3D9032063E0E5B9E369002B5ED0324AAB
:10085C00526802F00C02082A5BD0022B17D02F4BE7
:10086C0000221A60FFF7BCFC04462B4B1B6813F0EC
:10087C00007F47D0FFF7B4FC001B0228F5D90320FA
:10088C0045E0254AD36923F08053D361DCE7234B41
:10089C0000221A60FFF7A4FC05461F4B1B6813F0DF
:1008AC00007F06D0FFF79CFC401B0228F5D90320E3
:1008BC002DE0236AB3F5803F1AD017494B6823F417
:1008CC007413226A606A024313434B60134B012278
:1008DC001A60FFF785FC04460F4B1B6813F0007F72
:1008EC000ED1FFF77DFC001B0228F5D903200EE08A
:1008FC00094A536823F40033A1680B435360DCE7C7
:10090C00002004E0002002E0012000E0002002B002
:10091C0070BD0120FBE700BF0010024060004242A6
:10092C0010B487B0164C94E80F000DF1180C0CE9BC
:10093C000F00238AADF80430124B5B6803F00C02F5
:10094C00082A1AD1C3F38342624412F8102C13F410
:10095C00803F05D10C4800FB02F007B010BC70477B
:10096C00084B5B68C3F34043634413F8143C0748DB
:10097C0000FB02F0B0FBF3F0EFE70448EDE700BF3B
:10098C00C81D00080010024000093D0000127A004A
:10099C00594B1B6803F007038B420CD2564A136861
:1009AC0023F007030B431360136803F007038B4218
:1009BC0001D00120704770B5036813F0020F06D008
:1009CC004E4A536823F0F0038468234353600C466B
:1009DC000546036813F0010F52D04368012B23D056
:1009EC00022B28D0454A126812F0020F00F08280C8
:1009FC0042494A6822F0030213434B60FFF7F0FBB5
:100A0C0006466B68012B1DD0022B2AD03B4B5B6832
:100A1C0013F00C0F34D0FFF7E3FB801B41F288334B
:100A2C009842F3D9032064E0344A126812F4003F70
:100A3C00DED101205DE0314A126812F0007FD7D17F
:100A4C00012056E02D4B5B6803F00C03042B17D0F0
:100A5C00FFF7C6FB801B41F288339842F2D9032082
:100A6C0047E0264B5B6803F00C03082B08D0FFF71C
:100A7C00B7FB801B41F288339842F2D9032038E04F
:100A8C001D4B1B6803F00703A3420CD91A4A1368C9
:100A9C0023F0070323431360136803F00703A342F7
:100AAC0001D0012025E02B6813F0040F06D0134A67
:100ABC00536823F4E063E9680B4353602B6813F02D
:100ACC00080F07D00D4A536823F46053296943EA91
:100ADC00C1035360FFF724FF084B5B68C3F3031398
:100AEC00074AD35CD840074B18600020FFF736FB51
:100AFC00002070BD0120FCE70020024000100240E5
:100B0C00DC1D000808000020014B1868704700BF6E
:100B1C000800002008B5054B58601B6803B908BDD8
:100B2C00024B18680121FFF711FB00BF8C0000205D
:100B3C000EB42DE9F04183B0804609AB53F8046B39
:100B4C000193082000F0E6FC0446019B324600218C
:100B5C00084600F0D1FD451C284600F0DBFC07469A
:100B6C00019B3246294600F0C7FDC4F8008067603F
:100B7C002046FFF7CFFF03B0BDE8F04103B070474C
:100B8C0010B5044618B1406808B100F0CBFC204603
:100B9C0000F0C8FC10BD2DE9F04180460E4617460A
:100BAC000024002512E0C4F12002A4F1200328FA4D
:100BBC0004F006FA02F2104326FA03F3184300F08D
:100BCC00010000F0B1FB013445F10005FB179D421B
:100BDC0008BFBC42E7D3BDE8F081F8B50546002458
:100BEC000026002706E000F0BDFBA040064347EAC4
:100BFC00E0770134AC42F6DB30463946F8BD0000F4
:100C0C0038B500F0E7FB4FF0FF340B4D3222204695
:100C1C002946FFF7C0FF10224EF29E700021FFF70D
:100C2C00BAFF322220462946FFF7B5FF03220020E7
:100C3C000021FFF7B0FF38BDFFFF030082B0002199
:100C4C000B4600E001331F2B06DC20FA03F212F0F6
:100C5C00010FF7D00131F5E711F0010F06D0012398
:100C6C008DF807309DF8070002B0704700238DF80F
:100C7C000730F7E710B582B0012808D0C1F3810323
:100C8C0093B1032B10D000238DF807300FE0C1F384
:100C9C0081032BB1032B03D001238DF8073006E021
:100CAC0000238DF8073002E001238DF80730400057
:100CBC0060F07A00490001F0180108439DF80730F4
:100CCC0040EA43100822C0B20021FFF764FF00F095
:100CDC0067FB0320FFF781FFC0B2012803D0022875
:100CEC0027D004282AD02020FFF777FF0446FFF7EF
:100CFC00A5FFC0B28DF806000120FFF76EFFC0B251
:100D0C008DF807009DF80620D2B29DF80730DBB2B3
:100D1C009A4203D00C490020FFF70AFF00F05AFB5F
:100D2C00032200200021FFF736FF2046002102B0ED
:100D3C0010BD06490220FFF7FBFED4E7044904204E
:100D4C00FFF7F6FECFE700BF6C1E0008F41D00088D
:100D5C00301E000810B582B01446012808D0C1F32B
:100D6C00810393B1032B10D001238DF807300FE0D2
:100D7C00C1F381032BB1032B03D000238DF8073073
:100D8C0006E001238DF8073002E000238DF80730D0
:100D9C00400060F07E00490001F0180108439DF806
:100DAC00073040EA43100822C0B20021FFF7F3FEDF
:100DBC0000F0F6FA0320FFF710FFC0B28DF8060022
:100DCC009DF80630DBB2012B06D09DF80630DBB265
:100DDC00022B1BD0042B1ED000F0FCFA2022204644
:100DEC000021FFF7D8FE2046FFF728FFC0B28DF890
:100DFC0007009DF8070001220021FFF7CCFE03221B
:100E0C0000200021FFF7C7FE02B010BD04490220EC
:100E1C00FFF78EFEE0E703490120FFF789FEDBE7D1
:100E2C00881E0008C41E000830B583B00C4601F0C3
:100E3C00F003114A126802F0F005000643EA0001C3
:100E4C008D420CD022F07F4222F0F002134343EA91
:100E5C000002094B1A6008210020FFF77BFF214696
:100E6C000120FFF707FF01900C210020FFF702FF84
:100E7C000190019803B030BD9400002070B50C4671
:100E8C00154601F0F0030E4A126802F0F006000657
:100E9C0043EA00018E420CD022F07F4222F0F00295
:100EAC00134343EA0002064B1A6008210020FFF7A7
:100EBC0051FF2A4621460120FFF74CFF70BD00BFB1
:100ECC009400002010B5044602090A4B1B6803F07D
:100EDC000F01914208D023F00F031A43054B1A60FF
:100EEC0008210020FFF736FF21460020FFF7C2FE45
:100EFC0010BD00BF9400002038B504460D46020911
:100F0C000A4B1B6803F00F01914208D023F00F032A
:100F1C001A43064B1A6008210020FFF71BFF2A46D4
:100F2C0021460020FFF716FF38BD00BF94000020BB
:100F3C0000B583B0FFF764FE00210846FFF79AFE68
:100F4C0001901F2200210846FFF704FF0420FFF741
:100F5C00B9FF00900020074B186002460821FFF7EC
:100F6C00F9FE0420FFF7AEFF0090019803B05DF886
:100F7C0004FB00BF9400002008B54FF0A0410420F2
:100F8C00FFF7BAFF0420FFF79DFF00F02043B3F1F9
:100F9C00204FFAD108BD10B5FFF7EEFFFC21002061
:100FAC00FFF742FF044600210846FFF73DFF40F0E3
:100FBC00020200210846FFF761FF204610BD08B56C
:100FCC00024604210020FFF759FF0C210020FFF7F7
:100FDC002BFF08BD10B50C46024604210020FFF77C
:100FEC004DFF22460C210020FFF748FF10BD0000EA
:100FFC0010B5084C08492046FFF7ECFF0749084894
:10100C00FFF7E8FF07490848FFF7E4FF2046FFF722
:10101C00D6FF10BDF0ED00E003005FA00100000161
:10102C00FCED00E0040005FA0CED00E008B501460B
:10103C000348FFF7CFFF0348FFF7C1FF08BD00BF10
:10104C00F4ED00E0F8ED00E010B504460448FFF7BD
:10105C00C1FF44F480310348FFF7BCFF10BD00BF53
:10106C00F8ED00E0F4ED00E010B588B0184B9A698B
:10107C0042F020029A619A6902F020020192019AD0
:10108C009A6942F008029A619A6902F00802029287
:10109C00029A9A6942F004029A619B6903F0040374
:1010AC000393039B0B4C00224FF4C0412046FFF7E7
:1010BC002CFA4FF4C04304930123059300230693A9
:1010CC000323079304A92046FFF72EF908B010BD9F
:1010DC0000100240000C0140FEE7000000B591B08A
:1010EC00012206924FF480330793002108910A9253
:1010FC0002220D920E934FF4E0130F9306A8FFF704
:10110C0021FA08BB0F2301930221029100230393C0
:10111C004FF480620492059301A8FFF739FCB8B92B
:10112C00FFF7F2FC0C4BA3FB00308009FFF7A4F88F
:10113C000420FFF7B7F8002211464FF0FF30FFF7FD
:10114C0067F811B05DF804FBA2210448FFF7C4FF57
:10115C00B0210248FFF7C0FFD34D6210001F0008FA
:10116C0070B59EB0FFF71EF8FFF7B8FFFFF77CFFD6
:10117C00304B1A68009202AA1A604FF05A325A6029
:10118C0002A8FEF7DDFF18B12A4B5B68019343E020
:10119C0006222A200021FFF7FEFCFFF7C9FE1D9056
:1011AC00FFF7F9FE1C9000210846FFF73DFE199051
:1011BC002148FFF704FF1B902048FFF700FF1B900E
:1011CC00FFF716FF1A901E4C1E4E21463046FFF7B5
:1011DC0001FF1D4D1D492846FFF7FCFE3046FFF769
:1011EC00EEFE1A902846FFF7EAFE1A9018490520E1
:1011FC00FFF72AFF0520FFF719FF1A90FFF768F891
:10120C001448FFF77FF82246CD210120FFF7A2FDFD
:10121C00084B4FF05A325A60064B0021009A43F8A3
:10122C0031205B68B3F15A3F02D00198FFF7A8FC5C
:10123C00FEE700BF8C000020002004E000ED00E081
:10124C00785634121010002014100020CEFAAD0B7A
:10125C0010E10F000010000800B583B0244B9A6910
:10126C0042F001029A619A6902F001020092009A1E
:10127C00DA6942F08052DA61DB6903F08053019342
:10128C00019B0320FEF7B2FF002211466FF00B000A
:10129C00FEF7BEFF002211466FF00A00FEF7B8FF02
:1012AC00002211466FF00900FEF7B2FF0022114632
:1012BC006FF00400FEF7ACFF002211466FF0030044
:1012CC00FEF7A6FF002211466FF00100FEF7A0FF0B
:1012DC00002211464FF0FF30FEF79AFF054A536883
:1012EC0023F0E06343F00073536003B05DF804FB3C
:1012FC0000100240000001407047FEE7FEE7FEE7E9
:10130C00FEE770477047704708B5FEF75DFFFEF7C4
:10131C00DAFF08BD82B00190019B5A1E0192002B8E
:10132C00FAD102B07047000038B505460C4C0022CB
:10133C004FF400512046FFF7E8F8EAB24FF4804131
:10134C002046FFF7E2F8FA20FFF7E4FF01224FF402
:10135C0000512046FFF7D9F8FA20FFF7DBFF38BD24
:10136C00000C014038B50D4C01224FF400512046C1
:10137C00FFF7CBF8FA20FFF7CDFF4FF48041204662
:10138C00FFF7BCF8054600224FF400512046FFF74A
:10139C00BCF8FA20FFF7BEFF284638BD000C014010
:1013AC0030B585B04FF48043009300250195084C6F
:1013BC0069462046FEF7B8FF2A464FF400512046F6
:1013CC00FFF7A3F8FA20FFF7A5FF05B030BD00BF6B
:1013DC00000C014010B584B0154C01224FF40051A3
:1013EC002046FFF792F8FA20FFF794FF00224FF403
:1013FC0000512046FFF789F8FA20FFF78BFF0122F6
:10140C004FF400512046FFF780F8FA20FFF782FFD7
:10141C004FF4804300930123019300230293032391
:10142C00039369462046FEF77FFF04B010BD00BF52
:10143C00000C01400F4B1A6842F001021A60596807
:10144C000D4A0A405A601A6822F0847222F48032E3
:10145C001A601A6822F480221A605A6822F4FE027A
:10146C005A604FF41F029A60044B4FF000629A606E
:10147C00704700BF001002400000FFF800ED00E0D4
:10148C00002103E00B4B5B58435004310A480B4BD3
:10149C0042189A42F6D30A4A02E0002342F8043B6F
:1014AC00084B9A42F9D3FFF7C5FF00F00FF8FFF78E
:1014BC0057FE70474C1F00080000002070000020F1
:1014CC0070000020CC000020FEE7000070B5002565
:1014DC000C4E0D4CA41BA410A54209D100F062FCCB
:1014EC0000250A4E0A4CA41BA410A54205D170BDC0
:1014FC0056F8253098470135EEE756F825309847D1
:10150C000135F2E7441F0008441F0008441F00087F
:10151C00481F0008024B0146186800F057B800BF7E
:10152C000C000020024B0146186800F003B800BF05
:10153C000C00002038B50546002943D051F8043C76
:10154C000C1F002BB8BFE41800F0E4F81E4A136817
:10155C00104633B9636014602846BDE8384000F08B
:10156C00DAB8A3420BD921686218934201BF1A68FA
:10157C005B685218226063600460EDE713465A689A
:10158C000AB1A242FAD919685818A0420BD12068A6
:10159C000144581882421960DED110685268014427
:1015AC0019605A60D8E702D90C232B60D4E7206865
:1015BC0021188A4201BF11685268091821606260C3
:1015CC005C60C9E738BD00BF9800002070B5CD1C29
:1015DC0025F0030508350C2D38BF0C25002D0646CB
:1015EC0001DBA94203D90C233360002070BD00F04D
:1015FC0091F8214A1468214691B9204C23681BB9F3
:10160C00304600F03DF820602946304600F038F8AE
:10161C00431C24D10C233046336000F07CF8E4E703
:10162C000B685B1B18D40B2B0FD90B60CC18CD504F
:10163C00304600F070F804F10B00231D20F0070079
:10164C00C31AD3D05A42E250D0E74B688C4216BF33
:10165C00636013600C46EBE70C464968CCE7C41C8E
:10166C0024F00304A04205D0211A304600F008F8FB
:10167C000130CFD02560DBE7980000209C000020D3
:10168C0038B50023054C05460846236000F07CFB6A
:10169C00431C02D1236803B12B6038BDC800002065
:1016AC0030B5141E05469BB0184605DA8B234FF057
:1016BC00FF302B601BB030BD4FF40273ADF80C3013
:1016CC000CBF234604F1FF33029305934FF6FF73CF
:1016DC0000910491ADF80E3002461E9B69462846D7
:1016EC0000F074F8431CBCBF8B232B60002CE1D0A2
:1016FC000022009B1A70DDE707B5009313460A46DB
:10170C00014603480068FFF7CBFF03B05DF804FB0C
:10171C000C000020704770472DE9F0478E68824618
:10172C009E420C469046994637D88A8912F4906F9F
:10173C0031D00223256809696F1A656905EB4505E7
:10174C0095FBF3F509F101033B449D4238BF1D465F
:10175C00530530D52946FFF739FF064650B90C23FF
:10176C004FF0FF30CAF80030A38943F04003A38147
:10177C00BDE8F0873A46216900F0B4FAA38923F456
:10178C00906343F08003A38126613E4426604E465D
:10179C006561ED1BA5604E4500D94E46324641466B
:1017AC00206800F0AAFAA36800209B1BA3602368A2
:1017BC001E442660DCE72A4600F0B8FA06460028EC
:1017CC00E2D121695046FFF7B5FEC8E72DE9F04F8D
:1017DC009DB003938B8980461D060C4616460FD58B
:1017EC000B696BB94021FFF7F1FE2060206128B92D
:1017FC000C23C8F800304FF0FF30C7E04023636182
:10180C000023099320238DF8293030234FF0010B4E
:10181C008DF82A3037463D4615F8013B0BB1252B88
:10182C003ED1B7EB060A0BD0534632462146404612
:10183C00FFF772FF013000F0A480099B5344099319
:10184C003B78002B00F09D8000234FF0FF32CDE958
:10185C000523049307938DF853301A932F460522D2
:10186C0017F8011B4F4800F02FFA049BD0B9D9068A
:10187C0044BF20228DF853201A0744BF2B228DF829
:10188C0053202A782A2A15D02F4600200A25079A99
:10189C00394611F8013B303B092B4DD9B8B10FE05B
:1018AC002F46B8E73F4A3D46801A0BFA00F0184322
:1018BC000490D3E7039A111D12680391002A01DBEF
:1018CC00079204E0524243F00203079204933B78E0
:1018DC002E2B0CD17B782A2B33D1039B02371A1D6C
:1018EC001B680392002BB8BF4FF0FF3305932E4DAE
:1018FC0003223978284600F0E7F938B14023401B21
:10190C0003FA00F0049B0137034304933978062251
:10191C0026487E1C8DF8281000F0D6F9002838D007
:10192C00234B13BB039B073323F0070308330393A9
:10193C00099B4B4409936DE705FB023201200F46CE
:10194C00A6E700230A25194601370593384610F8F7
:10195C00012B303A092A03D9002BC8D00591C6E7D0
:10196C0005FB012101230746F0E703AB0093224658
:10197C00104B04A94046AFF30080B0F1FF3F814605
:10198C00D6D1A3895B063FF536AF09981DB0BDE8EB
:10199C00F08F03AB00932246064B04A9404600F09F
:1019AC0081F8EAE7101F0008161F00081A1F00082C
:1019BC0000000000251700082DE9F04791461F464E
:1019CC008A680B6906469342B8BF1346C9F80030C3
:1019DC0091F843200C46DDF8208012B10133C9F890
:1019EC0000302368990642BFD9F800300233C9F899
:1019FC000030256815F0060507D104F1190AE368D3
:101A0C00D9F800209B1AAB4229DC94F843302268A9
:101A1C00003318BF012392062ED404F14302394639
:101A2C003046C047013021D02368E56803F0060337
:101A3C00042B18BF0025D9F800204FF0000908BF6F
:101A4C00AD1AA368226908BF25EAE5759342C4BFA5
:101A5C009B1AED181A344D451AD1002008E00123C9
:101A6C00524639463046C047013003D14FF0FF3063
:101A7C00BDE8F0870135C2E73020E11881F843005A
:101A8C005A1C94F845102244023382F84310C4E7E0
:101A9C000123224639463046C0470130E6D009F1D1
:101AAC000109D8E72DE9F04301F1430C0C46097EFE
:101ABC0085B06E291746064698460C9A00F0B380FE
:101ACC0022D8632936D00AD8002900F0B9805829C9
:101ADC0000F0838004F1420584F8421032E064295E
:101AEC0001D06929F6D120681368050603F10401B9
:101AFC002AD51B681160002B03DA2D225B4284F877
:101B0C0043206F480A2239E0732900F09D8008D8E1
:101B1C006F2920D07029DDD1236843F02003236086
:101B2C0003E0752917D07829D4D17823654884F837
:101B3C00453055E0136804F14205191D1B6811600E
:101B4C0084F8423001238CE01B6810F0400F1160C8
:101B5C0018BF1BB2CFE713682568181D1060280644
:101B6C0001D51B6802E06806FBD51B886F2914BFE2
:101B7C000A2208225248002184F843106568002D7F
:101B8C00A560C0F29580216821F004012160002B32
:101B9C003DD1002D40F08E806546082A0BD123687C
:101BAC00DB0708D5236962689A42DEBF302305F84B
:101BBC00013C05F1FF35ACEB05032361CDF800804A
:101BCC003B4603AA21463046FFF7F6FE01304DD1C5
:101BDC004FF0FF3005B0BDE8F083394884F845106C
:101BEC00136821681D1D1B6815600A060BD5CA07F2
:101BFC0044BF41F0200121601BB9226822F0200271
:101C0C0022601022B7E74D0648BF9BB2EFE765464E
:101C1C00B3FBF2F102FB1133C35C05F8013D0B463B
:101C2C000029F5D1B9E713682568181D61691060A2
:101C3C0028061B6801D5196002E06A06FBD51980DD
:101C4C00002365462361B9E71368191D11601D68EF
:101C5C0062680021284600F037F808B1401B60602C
:101C6C0063682361002384F84330A7E723692A467D
:101C7C0039463046C0470130AAD023689B0713D49D
:101C8C00E068039B9842B8BF1846A3E701234A4675
:101C9C0039463046C04701309AD00135E368039A83
:101CAC009B1AAB42F2DCEBE7002504F11909F5E7CE
:101CBC00002BACD1037804F1420584F842306CE778
:101CCC00211F0008321F000810B5C9B2024490420F
:101CDC00034601D1002303E01C7801308C42F6D17D
:101CEC00184610BD10B5431E0A44914200D110BDD8
:101CFC0011F8014B03F8014FF7E7884210B501EBDF
:101D0C00020307D8421E99420AD011F8014B02F87F
:101D1C00014FF8E78342F5D98118D21AD34200D18A
:101D2C0010BD13F8014D01F8014DF7E7F8B5074662
:101D3C0014460E4621B9BDE8F8401146FFF746BCE3
:101D4C0022B9FFF7F7FB25462846F8BD00F014F83A
:101D5C00A0420FD221463846FFF738FC0546002832
:101D6C00F2D031462246FFF7BDFF31463846FFF729
:101D7C00E1FBE9E73546E7E751F8043C181F002B77
:101D8C00BCBF0B58C0187047044A05491368002B98
:101D9C0008BF0B461844106018467047A00000207E
:101DAC00D0000020F8B500BFF8BC08BC9E467047B8
:0C1DBC00F8B500BFF8BC08BC9E4670479C
:101DC80002030405060708090A0B0C0D0E0F101074
:101DD80001020000000000000000000001020304EE
:101DE8000607080900000000010203047377645223
:101DF8006561645061636B65742E204572726F7201
:101E08003A2041434B20726573706F6E64205741CE
:101E1800495420666F7220746865207472616E730D
:101E28006665722E00000000737764526561645025
:101E380061636B65742E204572726F723A2041435C
:101E48004B20726573706F6E64204641554C542068
:101E5800666F7220746865207472616E736665724D
:101E68002E00000057726F6E672070617269747976
:101E78002062697420646574656374656421000078
:101E880073776457726974655061636B65742E204B
:101E98004572726F723A2041434B20726573706FBE
:101EA8006E64205741495420666F7220746865201B
:101EB8007472616E736665722E00000073776457E2
:101EC800726974655061636B65742E204572726F18
:101ED800723A2041434B20726573706F6E642046DE
:101EE80041554C5420666F72207468652074726185
:101EF8006E736665722E00002E2E2F5372632F6D3F
:101F080061696E2E63000000232D302B2000686C61
:101F18004C00656667454647003031323334353604
:101F2800373839414243444546003031323334353D
:0C1F38003637383961626364656600006A
:041F4400310100085F
:041F48000D0100087F
:101F4C00010000001000000000A24A041000002054
:101F5C000000000000000000000000000000000075
:101F6C000000000000000000000000000000000065
:101F7C000000000000000000000000000000000055
:101F8C000000000000000000000000000000000045
:101F9C000000000000000000000000000000000035
:101FAC000000000000000000000000000000000025
:040000050800148D4E
:00000001FF
