:020000040800F2
:100000000050002045170008AD150008B115000884
:10001000B5150008B9150008BD150008000000005E
:10002000000000000000000000000000C1150008F2
:10003000C515000800000000C9150008CD1500080E
:100040008D1700088D1700088D1700088D17000800
:100050008D1700088D1700088D1700088D170008F0
:100060008D1700088D1700088D1700088D170008E0
:100070008D1700088D1700088D1700088D170008D0
:100080008D1700088D1700088D1700088D170008C0
:100090008D1700088D1700088D1700088D170008B0
:1000A0008D1700088D1700088D1700088D170008A0
:1000B0008D1700088D1700088D1700088D17000890
:1000C0008D1700088D1700088D1700088D17000880
:1000D0008D1700088D1700088D1700088D17000870
:1000E0008D1700088D1700088D170008000000000C
:1000F0000000000000000000000000000000000000
:0C01000000000000000000005FF808F1A3
:10010C0010B5054C237833B9044B13B10448AFF345
:10011C0000800123237010BD70000020000000003F
:10012C00A0200008084B10B51BB108490848AFF3D4
:10013C0000800848036803B910BD074B002BFBD0A7
:10014C00BDE81040184700BF0000000074000020FC
:10015C00A02000087000002000000000EC46A0E881
:10016C00F05F4FF000007047B0E8F05FE546080024
:10017C0008BF0120704700BF10B504460E4B18781D
:10018C004FF47A73B3FBF0F30C4A1068B0FBF3F046
:10019C0000F07EF858B90F2C0BD8002221464FF0F6
:1001AC00FF3000F043F8044B5C60002010BD0120D0
:1001BC0010BD012010BD00BF000000200800002071
:1001CC0008B5074A136843F010031360032000F0CE
:1001DC001BF80020FFF7D0FF01F092F9002008BDBA
:1001EC0000200240034A1368034909780B4413604A
:1001FC00704700BFA400002000000020014B1868CD
:10020C00704700BFA4000020074AD36823F4E063C2
:10021C001B041B0C000200F4E060184340F0BF60AC
:10022C0040F40030D060704700ED00E030B4164B65
:10023C00DB68C3F30223C3F10704042C28BF042496
:10024C001D1D062D01D9DD1E00E00025012303FA3A
:10025C0004F4013C2140A940AB40013B1A400A4345
:10026C00002806DA00F00F001201D2B2074B1A5424
:10027C0007E01201D2B200F1604000F5614080F855
:10028C00002330BC704700BF00ED00E014ED00E02F
:10029C000138B0F1807F0AD2064B5860F021064A33
:1002AC0082F823100020986007221A607047012002
:1002BC00704700BF10E000E000ED00E0042805D11D
:1002CC00054A136843F0040313607047024A13682D
:1002DC0023F004031360704710E000E0704700BF88
:1002EC0008B5FFF7FBFF08BD1A4BDB6813F0100FC6
:1002FC0006D0194AD36943F00203D361102300E0FE
:10030C000023144AD26812F0040F06D01249CA69AD
:10031C0042F00102CA6143F004030E4AD26912F0A2
:10032C00010F09D00C49CA6942F00402CA6109499B
:10033C00CA6922F00102CA6140F20112934205D14E
:10034C00044AD36923F00103D3617047014AD36097
:10035C00704700BF00200240A80000200A4B1B6918
:10036C0013F0800F0BD0084B084A5A6002F1883208
:10037C005A601B6913F0800F03D1002070470020D6
:10038C0070470120704700BF0020024023016745E1
:10039C00034A136943F0800313610020704700BFC8
:1003AC000020024038B50446FFF728FF054608E058
:1003BC00B4F1FF3F05D024B3FFF720FF401B84426C
:1003CC0021D3134BDB6813F0010FF1D1104BDB6819
:1003DC0013F0200F02D020220D4BDA600C4BDB689F
:1003EC0013F0100F09D10A4BDB6913F0010F04D184
:1003FC00074BDB6813F0040F07D0FFF775FF0120E4
:10040C0038BD032038BD032038BD002038BD00BFE7
:10041C00002002400022064BDA61064B1A6942F0BA
:10042C0004021A611A6942F040021A61704700BF57
:10043C00A8000020002002400022064BDA61064B87
:10044C001A6942F002021A6158611A6942F04002BC
:10045C001A617047A800002000200240264B1B7E2A
:10046C00012B47D070B50E4605460122224B1A7659
:10047C000368022B12D14CF25030FFF793FF88BB6C
:10048C000120FFF7C7FF4CF25030FFF78BFF0246FD
:10049C001A490B6923F004030B6126E04CF250302F
:1004AC00FFF780FF00BB4FF0FF333360AC680122D5
:1004BC0011E02046FFF7C0FF4CF25030FFF772FFFF
:1004CC000E4A136923F002031361024608B134602B
:1004DC000BE004F58064E968AB6803EB81239C4274
:1004EC00E7D302E0012200E001220021024B197641
:1004FC00104670BD02207047A8000020002002406A
:10050C00F0B583B000263446D5E00122A2400B683A
:10051C0013409A4240F0CE804D68122D2DD00BD84E
:10052C00022D27D003D85DB3012D1ED035E0032D4D
:10053C0030D0112D1BD030E0614FBD4220D008D8F7
:10054C00A7F58017BD421BD007F58037BD4224D1DB
:10055C0016E05C4FBD4213D007F58037BD420FD07B
:10056C00A7F58017BD4218D10AE0CE6815E0CE6819
:10057C00043612E0CE6808360FE0CE680C360CE07C
:10058C008D684DB1012D02D10261082605E0426152
:10059C00082602E0002600E00426FF2B01D8864640
:1005AC0001E000F1040EFF2B01D8A20002E0A4F13F
:1005BC0008029200DEF800700F25954027EA050529
:1005CC0006FA02F22A43CEF800204A6812F0805F45
:1005DC0070D03D4A956945F001059561926902F02C
:1005EC0001020192019AA708BD1C384A52F8255005
:1005FC0004F0030292004FF00F0E0EFA02FE25EAF1
:10060C000E0E334DA8420DD005F58065A8420BD0D7
:10061C0005F58065A84209D005F58065A84207D18B
:10062C00032506E0002504E0012502E0022500E098
:10063C00042505FA02F24EEA02020237234D45F870
:10064C0027204A6812F4803F05D005F580652A689A
:10065C001A432A6004E01F4D2A6822EA03022A602A
:10066C004A6812F4003F04D01A4D6A681A436A6053
:10067C0004E0184D6A6822EA03026A604A6812F4C0
:10068C00801F04D0134DAA681A43AA6004E0114DD0
:10069C00AA6822EA0302AA604A6812F4001F04D076
:1006AC000C4DEA681343EB6004E00A4DEA6822EA59
:1006BC000303EB6001340F2C7FF627AF03B0F0BDC2
:1006CC000000211000003110001002400000014019
:1006DC0000080140000401408368194201D0012048
:1006EC0070470020704700BF0AB1016170470904D0
:1006FC000161704782B0084B1B68084AA2FB0323B8
:10070C005B0A00FB03F0019000BF019B5A1E019293
:10071C00002BF9D102B0704708000020D34D6210B5
:10072C0070B582B00446036813F0010F6BD0A84B70
:10073C005B6803F00C03042B0AD0A54B5B6803F039
:10074C000C03082B0DD1A24B5B6813F4803F08D02F
:10075C009F4B1B6813F4003F55D06368002B52D19C
:10076C00B8E16368B3F5803F05D1994A136843F447
:10077C008033136026E063B903F1804303F504333F
:10078C001A6822F480321A601A6822F480221A60E5
:10079C0018E0B3F5A02F0CD103F18043A3F53C3343
:1007AC001A6842F480221A601A6842F480321A6085
:1007BC0008E0874B1A6822F480321A601A6822F417
:1007CC0080221A6063687BB1FFF718FD054605E0CF
:1007DC00FFF714FD401B642800F27E817C4B1B68E4
:1007EC0013F4003FF4D00EE0FFF708FD054605E0DA
:1007FC00FFF704FD401B642800F27081744B1B68EA
:10080C0013F4003FF4D1236813F0020F50D0704B57
:10081C005B6813F00C0F0AD06D4B5B6803F00C0394
:10082C00082B16D16A4B5B6813F4803F11D1684BCF
:10083C001B6813F0020F03D02369012B40F0508189
:10084C00634A136823F0F803616943EAC103136038
:10085C002EE02369D3B101225E4B1A60FFF7CEFC68
:10086C00054605E0FFF7CAFC401B022800F23A815E
:10087C00574B1B6813F0020FF4D0554A136823F042
:10088C00F803616943EAC103136011E00022514B84
:10089C001A60FFF7B3FC054605E0FFF7AFFC401B01
:1008AC00022800F221814A4B1B6813F0020FF4D18D
:1008BC00236813F0080F29D0A369ABB10122464B72
:1008CC001A60FFF79BFC054605E0FFF797FC401B01
:1008DC00022800F20B813E4B5B6A13F0020FF4D03E
:1008EC000120FFF707FF11E000223B4B1A60FFF7D6
:1008FC0085FC054605E0FFF781FC401B022800F251
:10090C00F780334B5B6A13F0020FF4D1236813F0BA
:10091C00040F00F089802E4BDB6913F0805F0BD144
:10092C002B4BDA6942F08052DA61DB6903F08053B9
:10093C000193019B012500E00025284B1B6813F453
:10094C00807F13D1254A136843F480731360FFF73B
:10095C0055FC064605E0FFF751FC801B642800F2AD
:10096C00C9801E4B1B6813F4807FF4D0E368012B05
:10097C0005D1174A136A43F00103136222E063B9ED
:10098C0003F1804303F504331A6A22F001021A6260
:10099C001A6A22F004021A6214E0052B09D10C4BDE
:1009AC001A6A42F004021A621A6A42F001021A62CE
:1009BC0008E0074B1A6A22F001021A621A6A22F046
:1009CC0004021A62E368CBB1FFF718FC06460FE08D
:1009DC00001002400000424280044242007000407D
:1009EC00FFF70CFC801B41F28833984200F28480A4
:1009FC00494B1B6A13F0020FF2D00FE0FFF7FEFB1E
:100A0C00064606E0FFF7FAFB801B41F2883398425A
:100A1C0074D8414B1B6A13F0020FF3D125B13E4A37
:100A2C00D36923F08053D361E369002B68D03A4A31
:100A3C00526802F00C02082A64D0022B37D1002233
:100A4C00364B1A60FFF7DAFB054604E0FFF7D6FBDE
:100A5C00401B022858D8304B1B6813F0007FF5D18F
:100A6C00236AB3F5803F06D12B494B6823F400323F
:100A7C00A36813434B602848436823F47411236A1A
:100A8C00626A13430B4343600122244B1A60FFF745
:100A9C00B5FB044604E0FFF7B1FB001B022835D878
:100AAC001D4B1B6813F0007FF5D0002031E00022B5
:100ABC001A4B1A60FFF7A2FB044604E0FFF79EFBFB
:100ACC00001B022824D8144B1B6813F0007FF5D1AF
:100ADC0000201EE001201CE003201AE0032018E097
:100AEC00012016E0032014E0032012E0032010E0A4
:100AFC0003200EE003200CE003200AE0032008E0B2
:100B0C00002006E0012004E0032002E0032000E0C6
:100B1C00032002B070BD00BF0010024060004242D2
:100B2C0030B486B0164D02AC28686968AA68EB68C8
:100B3C000FC42B8AADF80430124B5B6803F00C0227
:100B4C00082A19D1C3F3834206A90A4412F8100CDF
:100B5C0013F4803F0CD00B4B5B68C3F340430B4446
:100B6C0013F8142C084B03FB00F0B0FBF2F004E07C
:100B7C00064B03FB00F000E0034806B030BC7047A6
:100B8C00B82000080010024000127A0000093D0055
:100B9C0070B55C4B1B6803F007038B420BD2594AB0
:100BAC00136823F007030B431360136803F0070368
:100BBC00994240F09780036813F0020F06D0524C14
:100BCC00636823F0F0028368134363600D460446A8
:100BDC00036813F0010F4DD04268012A05D14A4B2E
:100BEC001B6813F4003F0DD17EE0022A05D1464B61
:100BFC001B6813F0007F05D178E0434B1B6813F0A2
:100C0C00020F75D040494B6823F0030313434B602C
:100C1C00FFF7F4FA06466368012B0ED106E0FFF7E6
:100C2C00EDFA801B41F28833984263D8364B5B68EF
:100C3C0003F00C03042BF2D11CE0022B15D106E0BF
:100C4C00FFF7DCFA801B41F28833984254D82E4BC4
:100C5C005B6803F00C03082BF2D10BE0FFF7CEFA24
:100C6C00801B41F28833984248D8274B5B6813F0BD
:100C7C000C0FF3D1234B1B6803F007039D420AD2E0
:100C8C00204A136823F007032B431360136803F007
:100C9C0007039D4234D1236813F0040F06D01A4980
:100CAC004B6823F4E062E36813434B60236813F052
:100CBC00080F07D0144A536823F46053216943EAA0
:100CCC00C1035360FFF72CFF0F4B5B68C3F3031397
:100CDC000E4AD35CD8400E4B18600020FFF74CFA3C
:100CEC00002070BD012070BD012070BD012070BDC1
:100CFC00012070BD032070BD032070BD032070BDAA
:100D0C00012070BD0020024000100240CC200008E1
:100D1C0008000020014B1868704700BF0800002035
:100D2C0008B5054B58601B6823B1034B18680121AB
:100D3C00FFF71AFA08BD00BF8C0000200EB42DE995
:100D4C00F04183B0804609AB53F8046B0193082043
:100D5C0000F03EFD0446019B32460021084600F09F
:100D6C002DFE451C284600F033FD0746019B3246FC
:100D7C00294600F023FEC4F8008067602046FFF788
:100D8C00CFFF03B0BDE8F04103B0704710B5044687
:100D9C0018B1406808B100F023FD204600F020FD9A
:100DAC0010BD00BF70B504460E46074800F022FA8D
:100DBC000546314600F02AFA284600F01BFA014697
:100DCC00204600F023FA70BDB80100202DE9F04157
:100DDC0080460E4617460024002512E0C4F120027E
:100DEC00A4F1200328FA04F006FA02F2104326FAC2
:100DFC0003F3184300F0010000F0F2FB013445F15D
:100E0C000005FB179D4208BFBC42E7D3BDE8F0814B
:100E1C00F8B5054600240026002706E000F0FEFB8E
:100E2C00A040064347EAE0770134AC42F6DB30469B
:100E3C003946F8BD38B500F029FC4FF0FF340B4DA6
:100E4C00322220462946FFF7C1FF10224EF29E7037
:100E5C000021FFF7BBFF322220462946FFF7B6FFE1
:100E6C00032200200021FFF7B1FF38BDFFFF030074
:100E7C0000210B4606E020FA03F212F0010F00D01D
:100E8C00013101331F2BF6DD82B011F0010F03D1BC
:100E9C0000238DF8073002E001238DF807309DF810
:100EAC00070002B0704700BF10B582B001280CD10A
:100EBC00C1F381030BB1032B03D100238DF8073051
:100ECC000FE001238DF807300BE0C1F381030BB168
:100EDC00032B03D101238DF8073002E000238DF89A
:100EEC000730400049009DF8073060F07A0001F0AF
:100EFC001801014341EA43100822C0B20021FFF758
:100F0C0065FF00F0A9FB0320FFF782FFC0B20128A8
:100F1C000DD0022802D0042805D008E01749022081
:100F2C00FFF70CFF03E016490420FFF707FF202012
:100F3C00FFF76EFF0446FFF79BFFC0B28DF806006B
:100F4C000120FFF765FFC0B28DF807009DF8062061
:100F5C00D2B29DF80730DBB29A4203D00949002087
:100F6C00FFF7ECFE00F092FB032200200021FFF7BC
:100F7C002DFF2046002102B010BD00BFE420000868
:100F8C00202100085C21000810B582B0144601280D
:100F9C000CD1C1F381030BB1032B03D101238DF8C9
:100FAC0007300FE000238DF807300BE0C1F381030D
:100FBC000BB1032B03D100238DF8073002E0012382
:100FCC008DF80730400049009DF8073060F07E0036
:100FDC0001F01801014341EA43100822C0B200217C
:100FEC00FFF7F4FE00F038FB0320FFF711FFC0B24F
:100FFC008DF806009DF80630DBB2012B10D09DF861
:10100C000630DBB2022B02D0042B05D008E01149CC
:10101C000220FFF793FE03E00F490120FFF78EFE3D
:10102C0000F034FB202220460021FFF7CFFE2046A3
:10103C00FFF71EFFC0B28DF807009DF807000122D4
:10104C000021FFF7C3FE032200200021FFF7BEFEA4
:10105C0002B010BD78210008B421000830B583B06F
:10106C000C4601F0F002114B1B6803F0F005000672
:10107C0042EA00018D420CD023F07F4323F0F003B1
:10108C00134340EA0302094B1A6008210020FFF7C2
:10109C007BFF21460120FFF707FF01900C21002068
:1010AC00FFF702FF0190019803B030BD94000020BF
:1010BC0038B50C4615460F4B1B6823F47F0121F401
:1010CC007F41000644EA000291420CD023F07F439A
:1010DC0023F0F003234340EA0302064B1A60082175
:1010EC000020FFF751FF2A4621460120FFF74CFF55
:1010FC0038BD00BF9400002010B5044602090A4B0D
:10110C001B6803F00F01914208D023F00F031A4320
:10111C00054B1A6008210020FFF736FF21460020FE
:10112C00FFF7C2FE10BD00BF9400002038B5044686
:10113C000D4602090A4B1B6803F00F01914208D0BF
:10114C0023F00F031A43064B1A6008210020FFF707
:10115C001BFF2A4621460020FFF716FF38BD00BFB3
:10116C009400002000B583B0FFF764FE0021084610
:10117C00FFF79AFE01901F2200210846FFF704FF9B
:10118C000420FFF7B9FF00900020074B18600246BF
:10119C000821FFF7F9FE0420FFF7AEFF009001983D
:1011AC0003B05DF804FB00BF9400002008B54FF0BD
:1011BC00A0410420FFF7BAFF0420FFF79DFF00F0C9
:1011CC002043B3F1204FFAD108BD00BF10B5FFF793
:1011DC00EDFFFC210020FFF741FF044600210846EB
:1011EC00FFF73CFF40F0020200210846FFF760FFCA
:1011FC00204610BD08B5024604210020FFF758FF19
:10120C000C210020FFF72AFF08BD00BF10B50C46CB
:10121C00024604210020FFF74BFF22460C21002040
:10122C00FFF746FF10BD00BF10B5084C084920461B
:10123C00FFF7ECFF07490848FFF7E8FF07490848A4
:10124C00FFF7E4FF2046FFF7D5FF10BDF0ED00E0FF
:10125C0003005FA001000001FCED00E0040005FAB2
:10126C000CED00E008B501460348FFF7CFFF03483B
:10127C00FFF7C0FF08BD00BFF4ED00E0F8ED00E0A3
:10128C0010B504460448FFF7C1FF44F4803103480D
:10129C00FFF7BCFF10BD00BFF8ED00E0F4ED00E07F
:1012AC0010B588B0184B9A6942F020029A619A697D
:1012BC0002F020020192019A9A6942F008029A61A6
:1012CC009A6902F008020292029A9A6942F00402A8
:1012DC009A619B6903F004030393039B0B4C00225C
:1012EC004FF4C0412046FFF7FFF94FF4C04304937D
:1012FC0001230593002306930323079304A9204697
:10130C00FFF7FEF808B010BD00100240000C0140C1
:10131C0000B583B0FFF722F801A90220FFF79EF871
:10132C00FFF736F803B05DF804FB00BF70B5054657
:10133C000E46FFF713F8002405E02846FFF77CF86B
:10134C0005F580650134B442F7DBFFF721F870BD79
:10135C00FEE700BF00B591B0012206924FF4803336
:10136C000793002108910A9202220D920E934FF4DA
:10137C00E0130F9306A8FFF7D3F918B1C221144854
:10138C00FFF7E6FF0F230193022102910023039341
:10139C004FF480620492059301A8FFF7F9FB18B192
:1013AC00D0210B48FFF7D4FFFFF7B4FC094BA3FB8C
:1013BC0000308009FEF76CFF0420FEF77FFF00224F
:1013CC0011464FF0FF30FEF731FF11B05DF804FB12
:1013DC00F0210008D34D621070B5A8B00023229301
:1013EC002193219B1BB120991F98FFF79FFF229BF4
:1013FC000BB1FFF78DFFFEF7E3FEFFF7ABFFFFF737
:10140C004FFF354B1A68009203A818604FF05A3200
:10141C005A60FEF7A3FE00284ED106222A20002196
:10142C00FFF7D4FCFFF79EFE2790FFF7CFFE269028
:10143C0000210846FFF712FE23902848FFF7DAFE3A
:10144C0025902748FFF7D6FE2590FFF7EDFE249058
:10145C00244C254E21463046FFF7D8FE234D244917
:10146C002846FFF7D3FE3046FFF7C4FE24902846EB
:10147C00FFF7C0FE24904FF00060FFF7BBFE2490F6
:10148C001C490520FFF7FCFE0520FFF7EBFE24901E
:10149C000C2219490020FFF785FCFEF75FFF174867
:1014AC00FEF7CAFF2246CD210120FFF76DFD4FF05C
:1014BC005A32094B5A6002E0074B5B680193064BAA
:1014CC000021009A43F831205B68B3F15A3F02D0F7
:1014DC000198FFF75BFCFEE78C000020002004E085
:1014EC0000ED00E07856341210100020141000208B
:1014FC00CEFAAD0B10E10F0000220008001000081E
:10150C0000B583B0244B9A6942F001029A619A6942
:10151C0002F001020092009ADA6942F08052DA611C
:10152C00DB6903F080530193019B0320FEF76CFEF3
:10153C00002211466FF00B00FEF778FE00221146D8
:10154C006FF00A00FEF772FE002211466FF00900E0
:10155C00FEF76CFE002211466FF00400FEF766FEEB
:10156C00002211466FF00300FEF760FE00221146C8
:10157C006FF00100FEF75AFE002211464FF0FF30CB
:10158C00FEF754FE054A536823F0E06343F0007302
:10159C00536003B05DF804FB0010024000000140F2
:1015AC00704700BFFEE700BFFEE700BFFEE700BFCD
:1015BC00FEE700BF704700BF704700BF704700BF19
:1015CC0008B5FEF70FFEFEF78BFE08BD82B001904A
:1015DC00019B5A1E0192002BFAD102B0704700BF3A
:1015EC0038B505460C4C00224FF400512046FFF74D
:1015FC007BF8EAB24FF480412046FFF775F8FA20E9
:10160C00FFF7E4FF01224FF400512046FFF76CF87E
:10161C00FA20FFF7DBFF38BD000C014038B50D4C4C
:10162C0001224FF400512046FFF75EF8FA20FFF735
:10163C00CDFF4FF480412046FFF74EF805460022BF
:10164C004FF400512046FFF74FF8FA20FFF7BEFF8A
:10165C00284638BD000C014030B585B04FF48043AE
:10166C00009300250195084C69462046FEF748FF7B
:10167C002A464FF400512046FFF736F8FA20FFF7C0
:10168C00A5FF05B030BD00BF000C014010B584B003
:10169C00154C01224FF400512046FFF725F8FA2093
:1016AC00FFF794FF00224FF400512046FFF71CF87F
:1016BC00FA20FFF78BFF01224FF400512046FFF771
:1016CC0013F8FA20FFF782FF4FF4804300930123B5
:1016DC000193002302930323039369462046FEF7EC
:1016EC000FFF04B010BD00BF000C01400F4B1A6877
:1016FC0042F001021A6059680D4A0A405A601A6891
:10170C0022F0847222F480321A601A6822F4802249
:10171C001A605A6822F4FE025A604FF41F029A6053
:10172C004FF00062034B9A60704700BF00100240FC
:10173C000000FFF800ED00E0002103E00B4B5B58CC
:10174C00435004310A480B4B42189A42F6D30A4ACA
:10175C0002E0002342F8043B084B9A42F9D3FFF70E
:10176C00C5FF00F00FF8FFF737FE7047482200085E
:10177C00000000207000002070000020CC00002031
:10178C00FEE700000E4B70B51E460E4C0025E41A09
:10179C00A410A54204D056F8253098470135F8E737
:1017AC0000F078FC084B094C1E46E41AA4100025E6
:1017BC00A54204D056F8253098470135F8E770BD9E
:1017CC004022000840220008402200084422000861
:1017DC00024B0146186800F057B800BF6C0000209F
:1017EC00024B0146186800F003B800BF6C000020E3
:1017FC0038B50546002944D051F8043C0C1F002B89
:10180C00B8BFE41800F0E8F81E4A1368114613B983
:10181C006360146030E0A3420DD92268A0188342A3
:10182C0001BF18685B681218226063600C6023E0CB
:10183C00A24203D813465A68002AF9D1186819181D
:10184C00A1420BD12168014458188242196013D16E
:10185C0010685268014419605A600DE002D90C23DB
:10186C002B6009E021686018824201BF1068526841
:10187C000918216062605C602846BDE8384000F0C1
:10188C00ACB838BD9C00002070B5CD1C25F003050C
:10189C0008350C2D38BF0C25002D064601DBA9425E
:1018AC0002D90C23336046E000F096F8234B1C68F9
:1018BC001A462146A1B10B685B1B0ED40B2B03D926
:1018CC000B60CC18CD501EE08C420BBF63684B688C
:1018DC001360636018BF0C4615E00C464968E9E7D5
:1018EC00174C23681BB9304600F02CF820602946B1
:1018FC00304600F027F8431C18D0C41C24F0030415
:10190C00A0420DD12560304600F067F804F10B00C1
:10191C00231D20F00700C31A0ED05A42E25070BDAE
:10192C00211A304600F00EF80130EBD10C23336055
:10193C00304600F052F8002070BD00BF9C00002023
:10194C009800002038B5064C002305460846236055
:10195C0000F092FB431C02D1236803B12B6038BD0D
:10196C00C800002030B5141E05469BB0184604DA9A
:10197C008B232B604FF0FF301DE04FF40273ADF85A
:10198C000C300CBF234604F1FF33029305934FF642
:10199C00FF7300910491ADF80E3002461E9B694610
:1019AC00284600F075F8431CBCBF8B232B6014B188
:1019BC00009B00221A701BB030BD000007B50093CD
:1019CC0013460A46014603480068FFF7CBFF03B0F5
:1019DC005DF804FB6C000020704770472DE9F04760
:1019EC008E6882469E420C46914698463ED88A891D
:1019FC0012F4906F3AD02568096902236F1A656951
:101A0C0005EB450595FBF3F57B1C43449D4238BF24
:101A1C001D4653050FD52946FFF736FF064698B1EC
:101A2C003A46216900F0D2FAA38923F4906343F07B
:101A3C008003A38113E02A4600F0EEFA064670B943
:101A4C0021695046FFF7D4FE0C23CAF80030A38955
:101A5C004FF0FF3043F04003A381BDE8F0872661CF
:101A6C003E44266046466561ED1BA560464528BF91
:101A7C00464649463246206800F0B3FAA368002077
:101A8C009B1BA36023681E442660BDE8F087000002
:101A9C002DE9F04F9DB003938B8980461C060D46B3
:101AAC0016460DD50B695BB94021FFF7EDFE28609A
:101ABC00286118B90C23C8F80030CDE040236B61C5
:101ACC000023099320238DF82930DFF89CB13023B3
:101ADC008DF82A3037463C4614F8013B1BB9B7EB5E
:101AEC00060910D003E0252BF9D02746F3E74B4627
:101AFC00324629464046FFF771FF013000F0A780BF
:101B0C00099B4B4409933B78002B00F0A0800023E9
:101B1C004FF0FF3204930793059206938DF85330E0
:101B2C001A930126052221784E4800F041FA671CD1
:101B3C00049B38B14B4A3C46801A06FA00F0184315
:101B4C000490EFE7D90644BF20228DF853201A07E2
:101B5C0044BF2B228DF8532022782A2A03D0079ACF
:101B6C0000210A200BE0039A111D12680391002A30
:101B7C0010DA524243F00200079204900BE0274621
:101B8C003B780134303B092B03D800FB0232012196
:101B9C00F5E701B107923B782E2B1ED17B782A2BCF
:101BAC000AD1039B02371A1D1B680392002BB8BF86
:101BBC004FF0FF33059310E0002319460593781C72
:101BCC000A2407463A780130303A092A03D804FB34
:101BDC0001210123F5E703B105910322397822484D
:101BEC0000F0E6F940B14023CBEB000003FA00F023
:101BFC00049B013718430490397806221B487E1C3D
:101C0C008DF8281000F0D4F988B1194B33B9039B27
:101C1C00073323F007030833039314E003AB00935B
:101C2C002A46144B04A94046AFF3008007E003ABEF
:101C3C0000932A460F4B04A9404600F093F8B0F1EC
:101C4C00FF3F824603D0099B5344099342E7AB897B
:101C5C005B0601D4099801E04FF0FF301DB0BDE8E0
:101C6C00F08F00BF0C220008122200081622000878
:101C7C0000000000E91900082DE9F04791461F46C5
:101C8C000A698B6806469342B8BF1346C9F8003000
:101C9C0091F843200C46DDF8208012B10133C9F8CD
:101CAC0000302368990642BFD9F800300233C9F8D6
:101CBC000030256815F0060510D104F1190A07E06B
:101CCC000123524639463046C04701301AD00135FF
:101CDC00E368D9F800209B1A9D42F1DB94F843305D
:101CEC002268003318BF012392060FD5E11830206B
:101CFC0081F843005A1C94F845102244023382F8B0
:101D0C00431003E04FF0FF30BDE8F08704F14302CD
:101D1C0039463046C0470130F4D02268D9F800501B
:101D2C00E36802F00602042A08BF5D1B2269A3685F
:101D3C000CBF25EAE57500259342C4BF9B1AED182C
:101D4C004FF000091A344D4509D00123224639467B
:101D5C003046C0470130D5D009F10109F3E7002026
:101D6C00BDE8F0872DE9F04317460A7E85B06E2A50
:101D7C00984606460C460C9B01F1430E00F0AE80D3
:101D8C0011D8632A22D009D8002A00F0BB80582A27
:101D9C0040F0CA8081F84520834955E0642A1ED062
:101DAC00692A1CD0C0E0732A00F0B08009D86F2AD1
:101DBC002ED0702A40F0B8800A6842F020020A60E7
:101DCC003EE0752A24D0782A3AD0ADE01A6801F1A9
:101DDC004205111D1960136884F84230A8E021688F
:101DEC001A6811F0800F02D0111D196008E011F073
:101DFC00400F02F10401196002D0B2F9003000E08A
:101E0C001368002B3CDA2D225B4284F8432037E028
:101E1C0021681A6811F0800F02D0111D196007E0BB
:101E2C0011F0400F02F10401196001D0138800E099
:101E3C001368227E5C496F2A14BF0A2208221BE019
:101E4C0078225A4984F845202268186812F0800FCD
:101E5C0000F104051D6003D1550601D5038800E08F
:101E6C000368D00744BF42F0200222601BB92268ED
:101E7C0022F0200222601022002084F8430001E0AE
:101E8C0049490A226568002DA56008DB206820F00E
:101E9C00040020602BB9002D7DD175460CE0002B81
:101EAC0079D07546B3FBF2F002FB1033CB5C05F82E
:101EBC00013D03460028F5D1082A0BD12368DA0727
:101ECC0008D5236962689A42DEBF302305F8013CCD
:101EDC0005F1FF35C5EB0E0323612EE008681A6887
:101EEC0010F0800F496903D0101D1860136808E0CA
:101EFC0010F0400F02F104001860136801D0198033
:101F0C0000E0196000232361754616E01A68111D64
:101F1C001960156800216268284600F049F808B17C
:101F2C00401B6060636804E004F1420584F84220C1
:101F3C0001232361002384F84330CDF800803B4615
:101F4C0003AA21463046FFF797FE013002D14FF02D
:101F5C00FF3026E023692A4639463046C047013017
:101F6C00F5D023689B0710D5002504F1190907E06B
:101F7C0001234A4639463046C0470130E7D0013587
:101F8C00E368039A9B1A9D42F2DBE068039B98423C
:101F9C00B8BF184605E00B7804F1420584F84230CE
:101FAC008AE705B0BDE8F0831D2200082E22000848
:101FBC0010B5C9B202449042034605D01C780130DA
:101FCC008C42F8D1184610BD002010BD10B5431E30
:101FDC000A44914204D011F8014B03F8014FF8E781
:101FEC0010BD884210B501EB020301D8421E0BE074
:101FFC009842FBD28118D21AD34204D013F8014D67
:10200C0001F8014DF8E710BD994204D011F8014BCD
:10201C0002F8014FF8E710BDF8B5074615460E4615
:10202C0021B91146BDE8F840FFF72EBC1AB9FFF7ED
:10203C00DFFB2846F8BD00F015F885420ED929467D
:10204C003846FFF721FC044650B131462A46FFF7CB
:10205C00BDFF31463846FFF7CBFB01E03046F8BDFB
:10206C002046F8BD51F8040C0028BEBF091851F8E1
:10207C00043CC01804387047044A05491368002B07
:10208C0008BF0B461844106018467047A00000208B
:10209C00D0000020F8B500BFF8BC08BC9E467047C5
:0C20AC00F8B500BFF8BC08BC9E467047A9
:1020B80002030405060708090A0B0C0D0E0F101081
:1020C80001020000000000000000000001020304FB
:1020D8000607080900000000010203047377645230
:1020E8006561645061636B65742E204572726F720E
:1020F8003A2041434B20726573706F6E64205741DC
:10210800495420666F7220746865207472616E731A
:102118006665722E00000000737764526561645032
:1021280061636B65742E204572726F723A20414369
:102138004B20726573706F6E64204641554C542075
:10214800666F7220746865207472616E736665725A
:102158002E00000057726F6E672070617269747983
:102168002062697420646574656374656421000085
:1021780073776457726974655061636B65742E2058
:102188004572726F723A2041434B20726573706FCB
:102198006E64205741495420666F72207468652028
:1021A8007472616E736665722E00000073776457EF
:1021B800726974655061636B65742E204572726F25
:1021C800723A2041434B20726573706F6E642046EB
:1021D80041554C5420666F72207468652074726192
:1021E8006E736665722E00002E2E2F5372632F6D4C
:1021F80061696E2E6300000068656C6C6F20776FF4
:10220800726C6400232D302B2000686C4C006566CE
:10221800674546470030313233343536373839412F
:102228004243444546003031323334353637383945
:08223800616263646566000049
:042240003101000860
:042244000D01000880
:10224800010000001000000000A24A040000000085
:102258000000000000000000000000000000000076
:102268000000000000000000000000000000000066
:102278000000000000000000000000000000000056
:102288000000000000000000000000000000000046
:102298000000000000000000000000000000000036
:1022A8000000000000000000000000000C000020FA
:040000050800174593
:00000001FF
